{
  "_format": "hh-sol-artifact-1",
  "contractName": "Storage",
  "sourceName": "contracts/Storage.sol",
  "abi": [
    {
      "inputs": [],
      "stateMutability": "nonpayable",
      "type": "constructor"
    },
    {
      "inputs": [],
      "name": "getHahs",
      "outputs": [
        {
          "components": [
            {
              "internalType": "string",
              "name": "hash",
              "type": "string"
            },
            {
              "internalType": "uint256",
              "name": "timestamp",
              "type": "uint256"
            }
          ],
          "internalType": "struct Storage.Hash[]",
          "name": "",
          "type": "tuple[]"
        }
      ],
      "stateMutability": "view",
      "type": "function"
    },
    {
      "inputs": [],
      "name": "owner",
      "outputs": [
        {
          "internalType": "address",
          "name": "",
          "type": "address"
        }
      ],
      "stateMutability": "view",
      "type": "function"
    },
    {
      "inputs": [
        {
          "internalType": "string",
          "name": "hash",
          "type": "string"
        }
      ],
      "name": "store",
      "outputs": [],
      "stateMutability": "payable",
      "type": "function"
    },
    {
      "inputs": [],
      "name": "storeAmount",
      "outputs": [
        {
          "internalType": "uint256",
          "name": "",
          "type": "uint256"
        }
      ],
      "stateMutability": "view",
      "type": "function"
    },
    {
      "inputs": [
        {
          "internalType": "string",
          "name": "hash",
          "type": "string"
        }
      ],
      "name": "validate",
      "outputs": [
        {
          "internalType": "bool",
          "name": "",
          "type": "bool"
        }
      ],
      "stateMutability": "view",
      "type": "function"
    },
    {
      "inputs": [],
      "name": "withdraw",
      "outputs": [],
      "stateMutability": "payable",
      "type": "function"
    }
  ],
  "bytecode": "0x608060405267016345785d8a000060015534801561001c57600080fd5b50600080546001600160a01b0319163317905561082c8061003e6000396000f3fe6080604052600436106100555760003560e01c8063131a06801461005a5780633ccfd60b1461006f578063624ee33114610077578063858e0eba146100a05780638da5cb5b146100c2578063d182b83b146100fa575b600080fd5b61006d610068366004610543565b61012a565b005b61006d61022c565b34801561008357600080fd5b5061008d60015481565b6040519081526020015b60405180910390f35b3480156100ac57600080fd5b506100b56102b7565b60405161009791906106ac565b3480156100ce57600080fd5b506000546100e2906001600160a01b031681565b6040516001600160a01b039091168152602001610097565b34801561010657600080fd5b5061011a610115366004610543565b610401565b6040519015158152602001610097565b60015434146101715760405162461bcd60e51b815260206004820152600e60248201526d125b9d985b1a5908185b5bdd5b9d60921b60448201526064015b60405180910390fd5b61017a81610401565b156101bd5760405162461bcd60e51b81526020600482015260136024820152724861736820616c72656164792065786973747360681b6044820152606401610168565b604080518082019091528181524260208083019190915260028054600181018255600082905283518051919092027f405787fa12a823e0f2b7631cc41b3ba8828b3321ca811111fa75cd3aa3bb5ace019261021c9284929101906104aa565b5060208201518160010155505050565b6000546001600160a01b0316331461027a5760405162461bcd60e51b81526020600482015260116024820152702cb7ba9030b932903737ba1037bbb732b960791b6044820152606401610168565b600080546040516001600160a01b03909116914780156108fc02929091818181858888f193505050501580156102b4573d6000803e3d6000fd5b50565b6000546060906001600160a01b031633146103085760405162461bcd60e51b81526020600482015260116024820152702cb7ba9030b932903737ba1037bbb732b960791b6044820152606401610168565b6002805480602002602001604051908101604052809291908181526020016000905b828210156103f8578382906000526020600020906002020160405180604001604052908160008201805461035d90610766565b80601f016020809104026020016040519081016040528092919081815260200182805461038990610766565b80156103d65780601f106103ab576101008083540402835291602001916103d6565b820191906000526020600020905b8154815290600101906020018083116103b957829003601f168201915b505050505081526020016001820154815250508152602001906001019061032a565b50505050905090565b6000805b6002548110156104a1578260405160200161042091906105f4565b6040516020818303038152906040528051906020012060028281548110610449576104496107ca565b906000526020600020906002020160000160405160200161046a9190610610565b60405160208183030381529060405280519060200120141561048f5750600192915050565b80610499816107a1565b915050610405565b50600092915050565b8280546104b690610766565b90600052602060002090601f0160209004810192826104d8576000855561051e565b82601f106104f157805160ff191683800117855561051e565b8280016001018555821561051e579182015b8281111561051e578251825591602001919060010190610503565b5061052a92915061052e565b5090565b5b8082111561052a576000815560010161052f565b60006020828403121561055557600080fd5b813567ffffffffffffffff8082111561056d57600080fd5b818401915084601f83011261058157600080fd5b813581811115610593576105936107e0565b604051601f8201601f19908116603f011681019083821181831017156105bb576105bb6107e0565b816040528281528760208487010111156105d457600080fd5b826020860160208301376000928101602001929092525095945050505050565b60008251610606818460208701610736565b9190910192915050565b600080835481600182811c91508083168061062c57607f831692505b602080841082141561064c57634e487b7160e01b86526022600452602486fd5b81801561066057600181146106715761069e565b60ff1986168952848901965061069e565b60008a81526020902060005b868110156106965781548b82015290850190830161067d565b505084890196505b509498975050505050505050565b60006020808301818452808551808352604092508286019150828160051b87010184880160005b8381101561072857603f1989840301855281518051878552805180898701526060610703828289018d8601610736565b928a0151868b015296890196601f01601f1916909401019250908601906001016106d3565b509098975050505050505050565b60005b83811015610751578181015183820152602001610739565b83811115610760576000848401525b50505050565b600181811c9082168061077a57607f821691505b6020821081141561079b57634e487b7160e01b600052602260045260246000fd5b50919050565b60006000198214156107c357634e487b7160e01b600052601160045260246000fd5b5060010190565b634e487b7160e01b600052603260045260246000fd5b634e487b7160e01b600052604160045260246000fdfea2646970667358221220afcb5cfcd022629375dc816b6cc52e4e6cc1e13c5a8aea5470bc801c8e4cd0c064736f6c63430008060033",
  "linkReferences": {},
  "deployedLinkReferences": {}
}